:03000000020040BB
:03001B0002007B65
:0300230002008B4D
:1000400075A0FF75A89875B810758780758920759B
:100050008DFAE5805403F8E5A0F9D28E1200A6E5EA
:10006000A0B5010280F9F912006C80F3309F08A25C
:10007000B7929BE9F59922E9F59922C0E0E5805411
:1000800003686004F81200A6D0E032209803C299F9
:1000900032309F0BE599F590A29A92B6C29832E55C
:1000A00099F590C29832E8B4000475985022B401D2
:1000B000047598D022B40204759890227598102285
:00000001FF