:03000000020030CB
:10001B00E580687001320201FF0000209904320272
:10002B0003FF0204FF75A0FF75A89875B8107587BC
:10003B0080758920758DFAE580F8A9A0D28EE5A090
:0C004B0069700280F9120502A9A080F281
:1001FF0030800320800520810F800520810E800430
:10020F0075981032759850327598B0327598F032E3
:1003FF00309F0BE599F590A29A92B6C29832E59983
:05040F00F590C29832D7
:1004FF00C29932309F09E5A0A2B7929BF59922E5E8
:04050F00A0F5992298
:00000001FF